:020000040800F2
:100000000040002055420008013A0008073A000865
:1000100000000000000000000000000000000000E0
:100020000000000000000000000000000D3A000881
:100030000000000000000000173A0008213A000804
:10004000A5420008A5420008A5420008A5420008F4
:10005000A5420008A5420008A5420008A5420008E4
:10006000A5420008313A0008493A0008A5420008B4
:10007000A5420008613A0008A5420008A542000810
:10008000A5420008A5420008793A0008A5420008E8
:10009000A5420008A5420008A5420008A5420008A4
:1000A000A5420008A5420008A5420008A542000894
:1000B000A5420008A5420008A5420008A542000884
:1000C00010B5064C2378002B07D1054B002B02D02E
:1000D000044800E000BF0123237010BD5801002038
:1000E000000000004C4C0108044B10B5002B03D05D
:1000F0000349044800E000BF10BDC04600000000F6
:100100005C0100204C4C01084B1C70B4111C5B08B6
:100110004A880E88024406441568346835601460C5
:1001200055687468756054600431013BF0D170BC4F
:1001300070474B1C70B4111C5B084A880E8852082B
:10014000760802440644156834683560146004314A
:10015000013BF2D170BC70470023C25C0133002A1E
:10016000FBD1581E70470000002243088B4274D315
:1001700003098B425FD3030A8B4244D3030B8B42A8
:1001800028D3030C8B420DD3FF22090212BA030CB1
:100190008B4202D31212090265D0030B8B4219D392
:1001A00000E0090AC30B8B4201D3CB03C01A5241B2
:1001B000830B8B4201D38B03C01A5241430B8B42FA
:1001C00001D34B03C01A5241030B8B4201D30B03E3
:1001D000C01A5241C30A8B4201D3CB02C01A52410A
:1001E000830A8B4201D38B02C01A5241430A8B42CD
:1001F00001D34B02C01A5241030A8B4201D30B02B6
:10020000C01A5241CDD2C3098B4201D3CB01C01ACF
:10021000524183098B4201D38B01C01A52414309D9
:100220008B4201D34B01C01A524103098B4201D3C7
:100230000B01C01A5241C3088B4201D3CB00C01A34
:10024000524183088B4201D38B00C01A52414308AC
:100250008B4201D34B00C01A5241411A00D20146D1
:10026000524110467047FFE701B5002000F0F0F85A
:1002700002BDC0460029F7D076E7704703460B431E
:100280007FD4002243088B4274D303098B425FD38F
:10029000030A8B4244D3030B8B4228D3030C8B42BB
:1002A0000DD3FF22090212BA030C8B4202D31212A1
:1002B000090265D0030B8B4219D300E0090AC30B76
:1002C0008B4201D3CB03C01A5241830B8B4201D323
:1002D0008B03C01A5241430B8B4201D34B03C01A0C
:1002E0005241030B8B4201D30B03C01A5241C30A84
:1002F0008B4201D3CB02C01A5241830A8B4201D3F5
:100300008B02C01A5241430A8B4201D34B02C01ADE
:100310005241030A8B4201D30B02C01A5241CDD283
:10032000C3098B4201D3CB01C01A524183098B42CE
:1003300001D38B01C01A524143098B4201D34B01B7
:10034000C01A524103098B4201D30B01C01A52411A
:10035000C3088B4201D3CB00C01A524183088B42A1
:1003600001D38B00C01A524143088B4201D34B008A
:10037000C01A5241411A00D20146524110467047FC
:100380005DE0CA0F00D04942031000D34042534001
:1003900000229C4603098B422DD3030A8B4212D3C1
:1003A000FC22890112BA030A8B420CD389019211F3
:1003B0008B4208D3890192118B4204D389013AD030
:1003C000921100E08909C3098B4201D3CB01C01A05
:1003D000524183098B4201D38B01C01A5241430918
:1003E0008B4201D34B01C01A524103098B4201D306
:1003F0000B01C01A5241C3088B4201D3CB00C01A73
:10040000524183088B4201D38B00C01A5241D9D28A
:1004100043088B4201D34B00C01A5241411A00D20B
:100420000146634652415B10104601D34042002B07
:1004300000D54942704763465B1000D3404201B586
:10044000002000F005F802BD0029F8D016E770473B
:100450007047C0468446100062468C4619006346C9
:1004600000E0C0461FB501F087FF002801D400213D
:10047000C8421FBD10B501F0D7FE4042013010BD8B
:1004800010B501F079FF002801DB002010BD01202C
:1004900010BDC04610B501F06FFF002801DD00203F
:1004A00010BD012010BDC04610B501F0FFFE0028B0
:1004B00001DC002010BD012010BDC04610B501F0C8
:1004C000F5FE002801DA002010BD012010BDC04655
:1004D000844608006146FFE71FB500F095FC002840
:1004E00001D40021C8421FBD10B500F021FC4042DC
:1004F000013010BD10B500F087FC002801DB0020A2
:1005000010BD012010BDC04610B500F07DFC0028D4
:1005100001DD002010BD012010BDC04610B500F067
:100520002DFC002801DC002010BD012010BDC046BC
:1005300010B500F023FC002801DA002010BD0120D6
:1005400010BDC0461C2101231B04984201D3000C9E
:1005500010391B0A984201D3000A08391B09984236
:1005600001D30009043902A2105C40187047C0464C
:10057000040302020101010100000000000000006C
:10058000002B11D1002A0FD1002900D1002802D060
:100590000021C943080007B4024802A14018029094
:1005A00003BDC046ADFEFFFF03B4684601B5029827
:1005B00000F03CF8019B9E4602B00CBC7047C04660
:1005C0009E2110B5C905041CFFF7B2FF002803D116
:1005D000201C00F047FF10BD9E21201CC90500F023
:1005E0007DFD00F03FFF80231B069C466044F2E740
:1005F00070B500220C4B04000D00FFF75FFF0028D0
:1006000004D12000290002F019FD70BD064B002224
:100610002000290002F080F902F010FD80231B0663
:100620009C466044F1E7C0460000E041F0B5574603
:100630004E464546DE46E0B504000D00924699461A
:1006400083B08B4230D82DD04946504602F052FE3E
:1006500029000600200002F04DFE331A9846203B88
:100660009B4633D45A465346934042461F00534656
:1006700093401E00AF423AD8AF4200D178E05B46CB
:10068000A41BBD41002B00DA75E00022002300927C
:10069000019301235A46934001930123424693401C
:1006A000009328E08242CFD90022002300920193D8
:1006B0000C9B002B01D01C605D600098019903B079
:1006C000F0BCBB46B246A946A046F0BD4246202338
:1006D0009B1A5246DA40414613004A468A401700A8
:1006E00042461F43534693401E00AF42C4D90022E6
:1006F0000023009201934346002BD9D0FB077208D8
:100700001A4346467B080EE0AB4201D1A2420CD808
:10071000A41A9D41012024196D410021013E241895
:100720004D41002E06D0AB42EED9013E24196D4159
:10073000002EF8D1009801995B4600196941002B01
:1007400024DB2B005A464446D3402A00E2401C00DA
:100750005B461500002B2ADB26009E403300260056
:100760004746BE403200801A9941009001919FE7B0
:10077000A342BCD883E74246202300219B1A0022D3
:10078000009101920122DA40019286E7424620233D
:100790009B1A2A0046469A402300F34044461343DE
:1007A0002A00E2401C005B461500002BD4DA4246CA
:1007B0002F002023260097409B1ADE403B00334346
:1007C000CDE7C046F0B5C64643025B0A4E0245007F
:1007D0004F00DA00C40F9C46700A904600B52D0EFB
:1007E0003F0EC90FB6098C424BD0EA1B002A36DDFA
:1007F000002F61D0FF2D00D1ADE08023DB041E432C
:100800001B2A00DCD3E001204346181A430100D420
:100810008CE0800187093800FFF794FE0538874097
:10082000854200DCB6E02D1AB3483840430704D0B7
:100830000F230340042B00D00430430100D478E0A0
:100840006A1CFE2D65D08001430A9C46D2B26346E5
:10085000D0051843E407204380BCB846F0BD002A09
:1008600035D07A1B002D00D0AFE04346002B00D1DD
:10087000A7E0531E012A00D12FE1FF2A69D01A00F8
:10088000AAE0E91B002970DD002F37D0FF2D62D0D0
:100890008023DB041E431B2900DCB0E00120404420
:1008A000430143D50135FF2D33D00123934A034043
:1008B000400810401843B9E7002E00D183E0511ED4
:1008C000012A00D1D8E0FF2A45D00A0098E7FE2788
:1008D0006A1C174200D086E0002D00D0B7E04346E6
:1008E000002B00D1F3E00022002EB0D0981B430172
:1008F00000D4FAE043460C00F01A97E7002E00D12E
:10090000C8E04A1E012900D1AEE0FF2923D0110022
:10091000C1E70023FF229C4699E7FE216A1C114291
:1009200077D0FF2AF5D0150046447008430700D061
:100930007EE7C308FF2D0ED05B025B0A9C46EAB23D
:1009400085E7002E07D08022D203134203D0104245
:1009500001D10C000300002BDBD08020C003184322
:100960004002430A9C46FF2271E70029D5D07A1B3A
:10097000002D60D14346002B24D0531E012A73D092
:10098000FF2AE7D01A001B2A00DC85E001203D0089
:10099000801985E720233A00451B38000135EA40DD
:1009A0005D1BA840431E9841002510433EE72023CD
:1009B00030009B1A31009840D140431E98410843B3
:1009C00022E70C0003001500B4E7FF2FC1D08023FD
:1009D0004046DB04184380461B2A51DD01200C00F1
:1009E0003D00301A12E743469F1B7B012BD4002F9A
:1009F00000D010E70023002400229C4627E7202394
:100A000032003000CA40591A8840431E98411043B2
:100A100045E7002D4AD14346002B63D00022002E2B
:100A200000D114E730004044430100D47EE7324B4C
:100A3000013518407AE7FF2F8CD080234146DB0434
:100A4000194388469FE743460C00F71AE3E64246FF
:100A5000002A00D075E7002E00D07AE78023DB0360
:100A600000249C46FF22F2E6300040440125430169
:100A700000D45BE7022518E743460125981BC5E62D
:100A8000202344464046D4409A1A9040431E984141
:100A90002043A4E70D004DE7202341464046D140C6
:100AA0009A1A9040431E9841084370E74246002A34
:100AB00000D14FE7002E00D14DE78022D203134230
:100AC00000D148E7104200D045E7030043E7002E7D
:100AD00090D00C0084460022B9E643460C00F01A80
:100AE000013593E684460022B1E6002800D01DE7D8
:100AF000002300249C46AAE6FFFFFFFBFFFFFF7DCB
:100B0000F0B54F464646D6464502C0B547000C1CD8
:100B10006D0A3F0EC60F002F00D170E0FF2F00D1ED
:100B200075E0EB008025ED041D43002399469A46AD
:100B30007F3F6002430A984663001B0EE40F002BC0
:100B40004ED0FF2B46D04246D0008022D204024332
:100B5000904600227F3B3100FF1A4B466140C9B2EC
:100B600013430F2B00D9B5E06E489B00C3589F4636
:100B7000002398462600454692465346022B00D154
:100B800089E0032B00D19EE0012B18D03B007F337E
:100B9000002B69DD6A0704D00F222A40042A00D006
:100BA00004352A0103D5604B1D403B008033FE2BEA
:100BB00000DD70E0AD016D0AD8B202E00E00002049
:100BC0000025C0052843F6073043E0BCBA46B146CD
:100BD000A846F0BD4346002B3FD10222FF3F03E071
:100BE0004346002B2DD1012231004B466140C9B252
:100BF00013430F2B34D84D489B00C3589F46002DFC
:100C000013D104239946033B00279A4691E7002D10
:100C100005D108239946063BFF279A4689E70C230E
:100C20009946093BFF279A4683E72800FFF78AFC8D
:100C30007627431F9D4000237F4299469A463F1ADC
:100C400077E74046FFF77EFC4246431F9A407623F3
:100C50005B4290461B1A00227DE7FF2303227AE7BE
:100C60000E00FF200025ACE70120C01A1B28A6DCDF
:100C70009E372A00BD40C2406B1E9D4115436B0745
:100C800004D00F232B40042B00D004356B0144D536
:100C90000120002595E7FF20002592E7802500260A
:100CA000FF20ED038DE7002398468020C003054216
:100CB00009D04346034206D1454605436D0226004E
:100CC000FF206D0A7DE78020C00305436D02FF20F1
:100CD0006D0A76E742466B015001834219D21B220E
:100CE0000025013F01261C006D005B00002C01DB8C
:100CF000984201D81B1A3543013A002AF3D15A1EF3
:100D000093411D433B007F330E00002B00DD41E784
:100D1000AAE71A2201251B1AE4E7AD0100206D0A9B
:100D20004FE7C046C84F0108FFFFFFF70850010812
:100D300070B5420045024E024C00C30F6D0A0120FF
:100D4000120E760A240EC90FFF2A06D0FF2C03D0FC
:100D5000A24201D1B54206D070BD002DFCD1FF2CBE
:100D6000FAD1002EF8D18B4206D00120002AF3D10F
:100D70002800431E9841EFE70020EDE770B54200E0
:100D800045024E024C00C30F6D0A120E760A240E65
:100D9000C80FFF2A1BD0FF2C0ED0002A1BD1002C1D
:100DA00001D1002E1CD0002D0CD083421CD002217A
:100DB000581E0840013870BD002E22D1002AF4D1FF
:100DC000002DF2D10028F6D101204042F3E7002D9A
:100DD00017D1FF2CF0D0002CE7D1002EE5D1E6E7AB
:100DE0000020002DE7D0E2E7A24205DCEADBB542B5
:100DF00002D8E7D30020DEE74342584140000138E3
:100E0000D9E702204042D6E770B5420045024E02C3
:100E10004C00C30F6D0A120E760A240EC80FFF2A6B
:100E20000BD0FF2C0DD0002A1FD1002C16D1002E84
:100E300014D10020002D10D009E0002D0CD1FF2C82
:100E400013D1002E08D1002A08D0834212D00221EB
:100E5000581E0840013800E0022070BD002DF4D17A
:100E60000028FAD101204042F7E7002CEDD1002EF6
:100E7000EBD1ECE7A24205DCF2DBB54202D8EFD3BE
:100E80000020EAE74342584140000138E5E7C04608
:100E9000F0B54F464646D64644024500C0B5640A02
:100EA0000F1C2D0EC60F002D00D18DE0FF2D00D19F
:100EB00092E00023802099469A46E400C00404434F
:100EC0007F3D7802430A98467B001B0EFF0F002BE4
:100ED00000D170E0FF2B00D186E04246D000802296
:100EE0007F3BED180023D204024390469C4631001C
:100EF0004B467940681C0F2B1CD8764A9B00D35870
:100F00009F4639004446E2465346022B0FD0032B3E
:100F100000D1D7E0012B37D100200024C0052043A9
:100F2000C9070843E0BCBA46B146A846F0BDFF2059
:100F30000024F3E7260C2404220C44462404240C49
:100F4000434627001B0C574374435A435E43121910
:100F50003B0C9B189C4203D9802252029446664463
:100F60003F041A043F0CD2199401671EBC411B0CAC
:100F7000920E9B1914439B011C431B0100D49BE060
:100F8000012362081C40144302007F32002A64DD02
:100F9000630704D00F232340042B00D00434230123
:100FA00003D502004C4B80321C40FE2ABFDCA4015A
:100FB000640AD0B2B2E74346002B3DD14A46013322
:100FC0001A4391469C4692E7002C29D10423994666
:100FD000033B00259A4674E7002C1BD10823994651
:100FE000063BFF259A466CE74346FF35002B0BD1A5
:100FF00002234A461A4391469C4678E753463100FD
:10100000022B00D083E792E703234A461A43914616
:101010009C466CE70C239946093BFF259A4650E70E
:101020002000FFF78FFA7625431F9C4000236D4276
:1010300099469A462D1A44E74046FFF783FA4246FE
:10104000431F9A4000232D1A90469C46763D4EE75A
:1010500080240021FF20E40360E701239B1A1B2B5F
:1010600000DD59E722009E30DA4084401300621E02
:1010700094411C43630704D00F232340042B00D06A
:10108000043463011AD50120002447E78020C003FF
:10109000044209D04346034206D144460443640255
:1010A0003900FF20640A39E78020C003044364024A
:1010B0003100FF20640A31E7280065E7A401002021
:1010C000640A2BE78020C00304436402FF20640A03
:1010D00024E7C04648500108FFFFFFF7F8B5CE46A9
:1010E000474643025B0A4E02DA009446720A914672
:1010F00045004A0080B52D0E1F00C40F120EC90F07
:10110000B609FF2A5BD0012041408C4239D0A81A91
:1011100000285ADD002A6AD0FF2D00D1D9E08022B4
:10112000D20416431B2800DCE9E001206346181AAC
:10113000430100D4B4E0800187093800FFF702FAC8
:1011400005388740854200DCCCE02D1AB548384090
:10115000430704D00F230340042B00D00430430185
:1011600000D4A0E06A1CFE2D00D18DE08001470A6A
:10117000D2B2D0053843E4072043C0BCB946B046DC
:10118000F8BDA81A8046002845DD002A70D0FF2D42
:1011900000D19EE08023DB041E4343461B2B00DC72
:1011A000D2E00120604443017AD50135FF2D6BD098
:1011B00001239D4A0340400810401843C8E7002E11
:1011C00020D08C4223D02800FF38002839D0571B6C
:1011D000002D00D09DE06346002B00D1DBE07B1E9C
:1011E000012F00D10DE1FF2F71D01F0098E0002EDC
:1011F00000D1A7E0421E012800D1E6E0FF2868D018
:1012000010008FE701204140A14200D07FE7FF207E
:1012100040428046A8444046002838D0511B002D4B
:1012200000D1AEE0FF2A00D1DFE080236046DB047E
:10123000184384461B2900DCD9E0012015008019E1
:10124000B1E7FE206A1C104271D1002D00D0A6E04B
:101250006346002B00D1D9E00022002E00D188E7A0
:10126000981B430100D4E1E063460C00F01A6FE7DD
:10127000002E00D1B7E00200013A012800D19CE025
:10128000FF2826D0904688E7FF22002771E7FE203E
:101290006A1C104264D0FF2AF6D01500664470081C
:1012A000430700D056E7C308FF2D12D05B025F0A48
:1012B000EAB25EE76246002A00D196E0002E08D02E
:1012C0008022D203134204D04846104201D10C00C0
:1012D0004B46002BD8D08027FF031F437F02FF22FD
:1012E0007F0A46E720233A00451B38000135EA40D3
:1012F0005D1BA840431E98410025104328E720238A
:101300001B1A32009E40C2403000431E98411043D9
:101310000CE7FF2ADBD080236046DB0418438446B9
:101320001B2F56DD01200C001500301A00E7634624
:101330009F1B7B013DD4002F00D0FEE6002400223D
:10134000002716E70500AFE7320043464146DA4082
:1013500020235B1A9E403000431E9841104321E732
:10136000002DA7D16346002B59D00022002E00D1BA
:10137000FFE630006044430192D52A4B0135184006
:101380008EE76346002B47D04B1E012915D0FF295D
:101390002BD019004EE70C004B463D0084E7624617
:1013A000002A8BD1002E92D180270024FF22FF0338
:1013B000DFE663460C00F71ABFE630006044012503
:1013C000430100D46CE70225F2E663460125981B31
:1013D000AEE6202364466046FC40DF1BB840431E57
:1013E000984120439FE705005EE74B4671E72023C5
:1013F00065466046CD40591A8840431E98412843AF
:101400001CE763460C000125F01A91E6002E95D0EA
:101410000C004F460022ACE64B460D0044E74F4619
:101420000022A6E6FFFFFFFBFFFFFF7D002800D0A4
:1014300036E7002400279CE643024A0240004900A8
:101440005B0A520A090E000EFF2806D00020FF2971
:1014500002D1531E9A4110007047FE38002BFBD179
:10146000F4E7C04641024200C30F490A0020120EB1
:101470007E2A03DD9D2A02DD094A981870478020E4
:1014800000040143952A07DC9620821AD140484285
:10149000002BF3D10800F1E7963A9140F7E7C046F8
:1014A000FFFFFF7FF8B5002813D0C317C6185E40B2
:1014B000C40F3000FFF746F89E2305001B1A962B39
:1014C0000FDC082801DD083DAE407602760AD8B26E
:1014D00002E0002400200026C0053043E40720433A
:1014E000F8BD992B0CDD05223100121AD1400A00FB
:1014F000010030001B318840411E88410243160024
:10150000052D12DC31000D4F3940720709D00F2034
:101510003040042805D004314A0102D59F233940C8
:101520005B1B89014E0AD8B2D6E76A1F964031008C
:10153000024F39407207F4D0E9E7C046FFFFFFFBD6
:1015400070B5051E0ED0FEF7FDFF9E2304001B1A8A
:10155000962B0CDC082801DD083CA5406D026D0AC5
:10156000D8B201E000200025C005284370BD992BAA
:1015700009DD020029001B3291404A1E91410522DB
:10158000121AD5400D43052C12DC29000C4E3140B7
:101590006A0709D00F202840042805D004314A01E9
:1015A00002D59F2331401B1B89014D0AD8B2DBE7CE
:1015B000621F95402900024E31406A07F4D0E9E7E6
:1015C000FFFFFFFBF0B54F464646D6460D00040030
:1015D000C0B51F0011002803620F400A10437A00B3
:1015E000520DE3003C039146640AFA0F4F0F6E0060
:1015F00027439246B846760DED0FC900954200D1BB
:1016000099E04C46341BA446002C00DC7CE04A46A2
:10161000002A00D1B8E0C54A964200D11CE18022E0
:101620003C0012041443A0466246382A00DD61E102
:101630001F2A00DDCCE164462022121B4446944060
:101640000F00A14664469140E7404C464A1E914136
:101650003C43424621436446E240801A5C1AA3425E
:101660009B415F42C71B3B0200D4D0E07F027F0A50
:10167000002F00D1FFE03800FEF764FF01000839B9
:10168000202322005B1A8F40DA408C401743B1427E
:1016900000DAFFE0891B4B1C1F2B00DDA8E0202295
:1016A0003900D21A200094409140D840621E9441E3
:1016B000DF40002601430C43630709D00F2323407A
:1016C000042B05D0231DA342A44164423F191C00F2
:1016D0003B0200D49EE0954B01369E4200D1B7E01C
:1016E000934AE40817407B0771057F0223433F0BB1
:1016F0004A0D12053A43ED072A4318001100E0BCD9
:10170000BA46B146A846F0BD002C4BD04C46A41BAF
:10171000A446002E00D023E104001C4300D1AFE119
:101720006246541E012A00D115E2804DAC4500D11D
:10173000C8E1A4461BE14A46B21A9446002A00DCDE
:10174000ACE04A46002A43D0784A964200D1AFE145
:1017500080223C0012041443A0466246382A67DC0B
:101760001F2A00DC5FE14746203AD7406246202A24
:1017700005D064464022121B4446944021434A1E31
:1017800091410C003C4357E03A000A4300D105E187
:101790002200013A012C00D182E1644CA4455BD0C7
:1017A000944641E7634C771C274200D0C4E0040014
:1017B0001C43002E00D069E1002C00D1BFE144465B
:1017C0000C4300D0D0E14207DB081343C00829E0F6
:1017D0003A000A4300D170E162466446013A012CA6
:1017E00000D1E0E0514CA44500D161E19446B4E75A
:1017F0003A001F39CA401100202B03D04022D31ACF
:101800009F403C43631E9C41002700260C43630716
:1018100000D053E7B446E4087B072343F808434A63
:1018200094451DD06246070352053F0B520D60E7F9
:1018300044460C43621E9441E4189C429B415F4223
:101840003F183B02E3D5394B01369E4200D0B5E04C
:101850003200002700234CE74207DB081343C0088F
:101860001A00024300D1E1E180273F0307433F0311
:101870002E4A3F0B3DE72000FEF764FE01001831C1
:101880001F2900DCFCE60838844027000024B14210
:1018900000DBFFE6264A761A17400DE7002A2FD014
:1018A0004A46921B9446002E00D1ADE01F4A914556
:1018B00000D10FE18022120410436246382A00DD75
:1018C0000FE11F2A00DD80E1644620221E00121B6A
:1018D0006746040093409440FE405A1E9341F840EE
:1018E00034431C43804464188C42BF417F424E46BF
:1018F0004744A6E742460A4311004A1E9141ADE61D
:101900000C4C721C224200D0A1E002001A43002EAF
:1019100000D0FAE0002A00D145E13A000A4300D0A5
:1019200046E14207DB081343C0087BE7FF070000DE
:10193000FFFF7FFFFE07000047465C1AC21BA34261
:10194000BF417F42B94617004A46BF1A3A0200D546
:101950008DE023003B4300D08AE60020002561E7AC
:10196000B44CA14500D1ADE080242404204364465A
:10197000382C3DDC62461F2C00DDB7E020251E0020
:101980002D1B0400AB40AC40D640D04042465D1E0B
:10199000AB413443121A904623432CE04207DB0844
:1019A0001343C0083BE75C189C429B4140445B42A8
:1019B000C71801263B0200D429E702269E4A630885
:1019C0001740012214401C43FB071C437F0873E6A9
:1019D0004446203AD4406246202A05D06746402239
:1019E000D21B4746974039434A1E9141214335E671
:1019F0000343581E8341CC1AA142BF4143467F4254
:101A000055464E46DF1B2EE602001A4300D1BDE0CC
:101A100062466446013A012C00D1E5E0854CA445BC
:101A200058D0944649E764462022121B444694400D
:101A30000F00A14664469140E7404C464A1E914142
:101A40003C4342460C436146CA408018F4E6794C58
:101A5000A24200D1FDE6591899429B4140445F42A1
:101A6000C719FC07490816000C437F08CFE6CC1ABB
:101A7000A142BF4143467F42181A5546C71BF7E5AE
:101A8000C9087B0755460B43F808C8E6002C00D070
:101A900081E043460B4315D1802000250003E3E697
:101AA0005C1AA3429B41C71B5B420126FF1ADAE581
:101AB0004207DB081343C008D2E64207DB081343A2
:101AC000C008ACE643464246C9085B0755460B438F
:101AD000D008C5E6434642465B07C9080B43D00819
:101AE000BEE603431C00631E9C41FCE60200203C52
:101AF000E24014006246202A03D04025AD1AA840D7
:101B00000343581E8341234375E7002AE2D03A007D
:101B10000A43CDD04207DB0813438022C0081203DA
:101B2000104206D0FC08144203D12000CB087A07EB
:101B300013435A0FDB005207DB08134390E643467A
:101B40000B4300D109E743464246C9085B075546A7
:101B50000B43D00866E6CC1AA14289413F1A49429C
:101B6000554601267F1A7EE542465C1A871AA34233
:101B700092415242BF1A3A023DD5CC1AA142894144
:101B8000434649421F1A55467F1A95E57B07C90807
:101B90000B43F80843E64446DB080C4330D14207C8
:101BA0001343C0085CE67B07C9080B43F80839E615
:101BB0005C189C429B4140445B42C7183B0200D4E6
:101BC00025E61D4B01261F4021E60400203AD440A3
:101BD0006246202A04D040226646921B904003436E
:101BE0005A1E93411C437EE65C188C428941404456
:101BF00049424718DDE623003B4300D1ADE606E647
:101C0000440723438024C0082403204208D04246CE
:101C1000D608264204D155463000CB0851070B4365
:101C20005A0FDB00DB085207134319E60023014A71
:101C30001F005EE5FF070000FFFF7FFFF0B557467E
:101C40004E464546DE46E0B5814605000C03480099
:101C500092461F0085B0240B400DCE0F002800D106
:101C600056E1D44B984200D172E16B0FE4001C4363
:101C700080231B0423439846CF4BED009B46002353
:101C80009946834400933C037B005046240B5B0D34
:101C9000FF0F002B00D11FE1C64A934200D162E141
:101CA000C549420F8C46E4005946144380226344E0
:101CB0001204CB1A14439B46C200002033007B4021
:101CC0009A464B460F2B27D8BC499B00CB589F46C2
:101CD000B246009B022B16D0032B00D18EE2012BC3
:101CE00000D0D9E000230024002552461B052343E1
:101CF000D20713432800190005B0F0BCBB46B2461A
:101D0000A946A046F0BD00240025AA4BEDE7BA463F
:101D1000A04615000090DCE7444500D2C7E100D1A1
:101D2000C2E101235B429C462E0040460025E3446D
:101D30002302140E1C431B0C994623041F0C120291
:101D4000494600920197FEF795FA02007A430B0488
:101D5000310C804619438A4207D901235B429C46D5
:101D60000919E0448C4200D807E2881A4946FEF778
:101D700081FA09048C4631046646019A090C4243F3
:101D8000030031438A4204D90919013B8C4200D82F
:101D9000EDE1881A424612041A4390464146009BE0
:101DA0000E041B0C1F000293009B360C1B04190C25
:101DB0000B007343120C7E43039151437A431F0C73
:101DC000BC4676186644B14203D9802149028C464C
:101DD0006244310C8A1831041E04360C8E1990426C
:101DE00002D312D1B54210D24346591E009B9C46E5
:101DF00065441F009D429B415B421B19C0188442F1
:101E000000D2A0E100D19BE18846AE1BB542AD41B6
:101E1000801A6D42401B844200D1D5E14946FEF74D
:101E200029FA019A0B044243310C050019438A42F6
:101E300000D96CE1881A4946FEF71CFA019A36046B
:101E400042430904360C03000E43B24200D953E169
:101E50000398B61A02002D041D43029F2B041B0C8D
:101E60005A437B439C46290C4843130C84446344E7
:101E70007943984203D98020400284466144180C7B
:101E800012041B04120C41189B188E4200D2FFE072
:101E900000D1FAE001231D43494A5A44002A00DCDC
:101EA000AAE06B0700D03DE1ED084346DB0106D513
:101EB0004246444B1A4090468022D2005A44424B3C
:101EC0009A4200DD1FE743465B071D434346520528
:101ED0005C02240B530D08E75246224300D17BE0FD
:101EE000002C00D1FAE02000FEF72CFB02000B3A98
:101EF0001D2301009B1A52460839DA408C401443D6
:101F000052468A40314B58449B4683440020D5E6D4
:101F10004B462343984644D0002C00D1CEE020000D
:101F2000FEF710FB010002000B391D235B1A494626
:101F30001000D940083884400B004D462343984692
:101F400085402348831A9B460023994600939AE6CE
:101F50004B46234398461DD108239946063B00254E
:101F6000834600938FE65246224309D10223494615
:101F70001943184B89469C4600240220E3449DE601
:101F800003234A461A43134B91469C46524603206C
:101F9000E34493E60C239946093BA046834600930D
:101FA00071E60423994600239B46013300250093E4
:101FB00069E6C046FF07000001FCFFFF88500108EA
:101FC000FF030000FFFFFFFEFE070000F303000019
:101FD0000DFCFFFF01F8FFFF494601231943894625
:101FE000002401206AE6002380249A4600258A4BBB
:101FF00024037AE601256D4201239B1A382B00DD6C
:1020000070E61F2B00DCBFE01F2149428A1A4146BF
:10201000D1400A00202B04D04146804B5B449940BC
:102020000D436B1E9D4107232A431D0000241540CC
:10203000134200D1D4E00F2100231140042900D124
:10204000CBE0111D9142924152429B180A001902A5
:1020500000D4C2E001230024002546E68023414647
:102060001B03194208D01C4206D11C432403BA4664
:102070001500694B240B38E68024434624031C4397
:102080002403B246644B240B2FE6002B00D103E758
:10209000A619681EA64200D28DE08E4200D2A3E0AF
:1020A00000D1B3E00500F5E6AA4200D939E643467F
:1020B000DE0758086B081E43ED0739E64846FEF771
:1020C00041FA01000200153120321C2900DC2CE706
:1020D0004B46083883400025984632E7FEF732FA2F
:1020E00003001A00153220301C2A00DC00E7544699
:1020F000083B00229C4005E73619013BB44200D959
:10210000A6E6B24200D8A3E6831E3619A0E6091956
:10211000013D8C4200D98DE68A4200D88AE6851EB0
:10212000091987E60F232B40042B00D1BCE60523B9
:102130005B42AB429B4104355B42ED089844B4E6F8
:10214000AF4200D960E6824204D800D05CE6AE42DD
:1021500000D859E602235B429C46009BE0449C4623
:1021600065449D429B415B421B19C0184DE68A4263
:1021700000D80EE6831E09190BE68A4200D8F4E562
:10218000831E98460919F0E52549280059448D40D9
:1021900042468A40691E8D414146D840D94002439B
:1021A0002A430B00510700D151E70F2111400429A8
:1021B00000D046E74BE705008E4200D06AE6009A61
:1021C000934200D066E667E6164A5A44002A00DCCD
:1021D00010E701230025984467E65D075B021C0BAE
:1021E000D2080023154380E50098023D4200824258
:1021F000BF417F423C1936190092DDE780244346F7
:1022000024031C432403044B240B6EE5009A9A42DA
:10221000EAD30500D3E7C046FF0700003E040000F4
:102220001E040000FF030000F0B54E464546DE46A2
:1022300057469046E0B517001A03120B0500844676
:1022400019480E034C0091465A00DB0F9B46360B93
:10225000640DC90F520D844219D0824210D0012062
:1022600094420ED14E450CD10120C44509D15945A7
:1022700017D0002C05D130002843431E984100E0C0
:102280000120F0BCBB46B246A946A046F0BD3300D3
:1022900001202B43F5D1A242F3D14B463B43F0D171
:1022A000E2E70020EDE7C046FF070000F0B5474633
:1022B000CE460400180016001B031B0B2D4D4A00D0
:1022C000994680B543000F03A446B0463F0B520D1C
:1022D000C90F5B0DC00FAA4221D0AB4213D0002A18
:1022E00022D13C43002B02D14D462E4322D0002C5C
:1022F00010D0814222D00220013908400138C0BCF0
:10230000B946B046F0BD4D462E4329D1002AF0D142
:102310003C43EED10028F2D101204042EFE73D00DE
:1023200025431DD19342EED0002BE2D14C462643EB
:10233000DFD1E0E70020002CE1D0DCE79A420ADCA4
:10234000E8DB4F45D7D80ED000204F45D7D2002923
:10235000E2D00800D3E74342584140000138CEE7BD
:1023600002204042CBE7C445C5D80020C445C6D2B0
:10237000EDE7C046FF070000F0B54746CE46040033
:10238000180016001B031B0B2C4D4A00994680B504
:1023900043000F03A446B0463F0B520DC90F5B0D1F
:1023A000C00FAA420DD0AB4210D0002A27D13C4327
:1023B000002B11D14D462E430ED10020002C15D0FC
:1023C0000EE03D00254310D1934218D14D462E43D7
:1023D0000BD1002A02D13C43002C0BD0814214D0F7
:1023E000022001390840013800E00220C0BCB94693
:1023F000B046F0BD0028F9D101204042F6E7002B9D
:10240000ECD14C462643E9D1EAE79A4204DD434247
:10241000584140000138E9E79A42EBDB4F45DFD8ED
:1024200006D000204F45E1D20029E5D00800DDE7C5
:10243000C445D5D80020C445D8D2F5E7FF07000031
:10244000F0B557464E464546DE46E0B598460C0385
:102450004B000600924687B0240B5B0DCF0F002B7C
:1024600000D15CE1D94A934200D175E1420FE4000A
:102470001443802212041443D54AC5009446634491
:102480000093002399469B46434642461E03D20FC3
:102490005B0050469046360B5B0D00D120E1CB4AE5
:1024A000934200D162E1CA49420F8C4600996344CD
:1024B000F6008C46164380229C4412046346164361
:1024C000C200002000930099434601318C464946E2
:1024D0007B4001930F2926D8BE4B890059588F465F
:1024E000434601933400150083465B46022B16D009
:1024F000032B00D103E2012B00D0CDE00022002409
:102500000025019B12052243DB071A432800110016
:1025100007B0F0BCBB46B246A946A046F0BD0024B9
:102520000025AA4AEDE7280C2D042D0C2B00110CD8
:102530001204120C5343984613002F00434399464C
:102540004F434F44BB4647460B003F0CBA464343FC
:10255000DA440293D14504D980277F02B9464B441F
:10256000029353461B0C9B4653461F0443461B04D1
:102570001B0C98463B0043440493330C3604360C42
:102580009846330043439946434643432F009A46B7
:10259000434677435D43380C4D444519A94503D95B
:1025A00080235B029946CA443F04280C3F0C2D044B
:1025B000ED19270C2404240C0300200050437A4317
:1025C00091463A0053440593030C9A464A436143AB
:1025D00049445144AB44894503D980235B02994661
:1025E0004A4400040B0C000C090409182000994609
:1025F000434670435C437E435F43030C9846A419F3
:1026000044444A440397A64204D980235B02984677
:10261000474403972304029E9A46059B5E449846CE
:10262000AE42AD4176188E4289410004000C504400
:1026300040446D424719B846934649428946C344CF
:10264000D94498428041A845AD419345924189457E
:1026500089416D4240422843240C524249420A4378
:10266000039B00198018C7184B46DC0D049B7502AC
:102670001D436A1E95414B46F60D7F0235435A02B3
:102680003C431543FB0100D41CE101216A080D40C5
:102690001543E207154364084F496144002900DCF3
:1026A000B0E06B0709D00F222A40042A05D02A1D6A
:1026B000AA42AD416D4264191500E30104D58021A1
:1026C000464AC90014406144454A914200DD26E76C
:1026D0006207ED08640249051543240B4A0D10E713
:1026E0005246324300D17FE0002E00D1DCE03000C2
:1026F000FDF728FF02000B3A1D2301009B1A5246EA
:102700000839DA408E40164352468A40009B3549CC
:10271000181A03008C46634400200093D3E625007A
:1027200005434AD0002C00D1B0E02000FDF70AFF9D
:10273000010002000B391D2310005B1A3100350027
:1027400008388440D94085400C432648831A0093BA
:10275000002399469B4697E60500254326D108228B
:1027600000930223002491469B468DE65246009B2F
:10277000324310D1154900268C46634449460093E4
:1027800002231943894602209DE65B460197022BEE
:1027900000D0ADE6C3E60D4A0320944663444A46A2
:1027A000009303231A43914652468CE60C22009371
:1027B0000323050091469B4666E6042399460023C1
:1027C0000093013300249B465EE6C046FF070000ED
:1027D00001FCFFFFC8500108FF030000FFFFFFFEE0
:1027E000FE0700000DFCFFFF4946012319438946FF
:1027F0000026012067E6002380240025434A019338
:1028000024037EE60120401A382800DD76E61F28E2
:102810005BDD1F2223005242511ACB4019002028B1
:1028200003D03B4A6244944025436A1E95412A00E6
:102830000A4307210D000024154011425BD00F21EF
:1028400000241140042953D0111D9142924152425B
:10285000A4180A0023024BD501220024002550E6CB
:1028600080231B031C4209D01E4207D133431C03A3
:1028700043461500240B254A019342E680221203A9
:1028800014432403214A240B01973AE6FDF75AFE2C
:1028900001000200153120321C2900DC4BE7340016
:1028A00008380025844050E7FDF74CFE03001A006D
:1028B000153220301C2A00DC1EE75646083B002259
:1028C0009E4023E7009B9C46E6E6124922006144B5
:1028D0002E008D408A40C640691E8D4132432A43F6
:1028E000C4405307B6D00F2111400429ACD1B1E741
:1028F00065076402240BD2081543002201E68022FA
:10290000120314432403014A240BFAE5FF070000D5
:102910003E0400001E040000F8B557464E464546EA
:10292000DE46E0B51E0017004A000B03520D5B0A9D
:102930009046420F1A43CD0FCD4C3103C30094464D
:1029400070007A0F490AFF009A46B946400DF60F0B
:102950001143A04200D1B1E001225640B346B54236
:1029600000D188E04246121A002A00DCAEE00028BE
:1029700000D1C1E0BE48804500D151E18020000473
:102980000143382A00DD7BE11F2A00DDEEE1202033
:102990003E00801A0C00D640D140874062468440F9
:1029A000521A781E8741944634432743DC1BA342C6
:1029B0009B4162465B42D31A99464B461B0200D4A8
:1029C00018E14B465802430A99464B46002B00D16A
:1029D00037E14846FDF7B6FD010008392023220003
:1029E00048465B1ADA4088408C404346104388458D
:1029F00000DD36E1C91A4B1C1F2B00DDEAE0202266
:102A00002600D21A01009440DE40D84000239140B5
:102A1000621E94418146984631430C43630709D0B6
:102A20000F232340042B05D0231DA342A44164425D
:102A3000A1441C004B461B0200D4DEE041468C4BF7
:102A40000131994200D1E7E04B468A48E40803404F
:102A5000180049055B07400223434A0D040B120589
:102A6000ED0722432A4318001100F0BCBB46B246D2
:102A7000A946A046F8BD4246121A002A52DD002897
:102A800000D19CE0A04500D1CAE0802000040143B1
:102A9000382A00DD49E11F2A00DC97E110000E0012
:102AA0002038C640202A04D04020821A91400F438B
:102AB000B9464C46621E944134433AE10A003A4317
:102AC00028D0B346B5422BD06B4A4244002A5DD091
:102AD00042464446821A002C00D0F5E065461D436C
:102AE00000D19CE1551E012A00D1FBE1604CA242BD
:102AF00000D1BDE12A00F0E00800384300D1C3E076
:102B0000501E012A00D1A8E1594CA24200D187E011
:102B1000020036E701225640B346B54200D021E715
:102B2000554A4244002A00D1B5E042464446821A42
:102B3000002C00D138E14E4EB04200D1DEE18026BB
:102B4000644636043443A446382A00DD96E11F2A41
:102B500000DD24E22026B41AA24664465646B4405C
:102B6000A1461C004E46D440264334005646B3408E
:102B70005E1EB3411C436346D340C918E419BC42EE
:102B8000BF417F42B94680468944D8E040463B4C2D
:102B90000130204200D0B4E04046002800D044E19B
:102BA0006046184300D190E10800384300D0AAE104
:102BB0006146DB0849070B436146CC0827E0080063
:102BC000384361D0501E012A00D139E1A24227D0FA
:102BD00002005DE702001F39CA401100202B03D01C
:102BE0004022D31A98400443631E9C410023994617
:102BF00098460C43630700D012E74B464A46E40868
:102C00005B072343D408424619498A420ED0240365
:102C10005205240B520D22E70A00002400231EE770
:102C2000DB086246520713436246D4081A00224367
:102C300000D1FCE180221203144324030C4A240B2C
:102C40000DE72000FDF77EFC010018311F2900DC94
:102C5000C4E608388440434620000024884500DC50
:102C6000C8E6044A5B1A104098468146D6E6C0463C
:102C7000FF070000FFFF7FFF01F8FFFFFE070000D6
:102C80000F437A1E974191E66146DB0849070B43E3
:102C90006146CC08B8E74046D34C0130204200D012
:102CA000A2E04046002800D001E16046184300D170
:102CB0005EE10800384300D05FE16146DB08490768
:102CC0000B436146CC08A2E7C84DA84200D1CFE033
:102CD000802564462D042C43A446382A56DC1F2A3E
:102CE00000DDD1E020251E00AD1A6446AB40AC40AB
:102CF000D6405D1EAB41344323436446D440091B98
:102D000049E06046DC1B461AA342804140428146AE
:102D100030004E46801B8146000276D44B4623434A
:102D200000D052E60024002571E739430C00621EF2
:102D30009441E4189C429B415B42634499464B4654
:102D40001B0200D456E701239C46A84BE04498455B
:102D500038D04B46A64801220340180063081440AF
:102D60001C43C3071C434308994657E610000E0056
:102D70002038C640202A04D04020821A91400F43B8
:102D8000B9464F467A1E974137430FE662461A43CB
:102D900013005A1E9341FC1AA742BF417F42CB1B2E
:102DA00099465D46804608E666461E4300D1BEE071
:102DB000561E012A00D109E18C4CA24200D119E132
:102DC0003200C1E642460024002348E620200C00E1
:102DD000801A3E0087408440D640781E8741D1400B
:102DE00034433C438C44A4E7804A904200D1E9E05C
:102DF000DF199F429B4161445B42C918CC077F08A1
:102E00004B08994680463C43F4E6FC1AA742BF4172
:102E100063467F42C91ACB1B99465D46D5E5FF083C
:102E20004B075D463B43CC08EEE662461A4300D0B2
:102E300082E00B003B431BD1802400252403F9E6EC
:102E4000DC199C429B41614489465B4299444B4654
:102E50001B0244D401239846CCE6DC1B6246A34205
:102E60009B41511A5B42CB1A994601239846A4E52F
:102E7000FF084B075D463B43CC08D7E662461A4342
:102E80001400631E9C4179E615006446203DEC4029
:102E9000A046202A05D040256446AA1A9440234320
:102EA0009A465446631E9C414346234373E7624659
:102EB0001A4323D00A003A4300D0A0E06246DB0860
:102EC000520713436246D408B0E60B003B4300D1DF
:102ED00028E7FF084B075D463B43CC0897E60223F3
:102EE000984636E7FC1AA742BF4163467F42C91A9B
:102EF000CB1B994601235D4698465EE54B07FF08CC
:102F00003B43CC0892E6DC1B6046A342B641401A24
:102F10007642801B8146000260D5FC1AA742BF4161
:102F200063467F42C91ACB1B99465D4676E5FF088A
:102F30004B073B43CC0867E60A00DB083A4300D165
:102F40006FE66246520713436246D408802212039A
:102F5000144207D0C808104204D15D460400FB08A3
:102F600049070B435A0FDB00DB08520713435DE6AA
:102F70004B07FF083B43CC0849E6DC199C429B41C8
:102F8000614489465B4299444B461B0200D431E6BA
:102F90004A46174B1A400123914698462AE61600E6
:102FA0006446203EF440A046202A05D040266446D0
:102FB000B21A944023439A465446631E9C414346AA
:102FC0001C43DBE502000024002348E5DC19BC4279
:102FD000BF41614489467F42B94438E74B462343A9
:102FE00000D19FE606E6C046FE070000FF0700008E
:102FF000FFFF7FFFFF084B073B43CC0816E6624606
:10300000DB08520713436246D4088022120314429D
:1030100007D0C808104204D15D460400FB084907E8
:103020000B435A0FDB005207DB081343FEE5002376
:10303000014A1C0013E5C046FF0700000A0030B536
:10304000134C530009030500090B00205B0DD20F40
:10305000A34204DD0F48834202DD0F4BD01830BD80
:103060008020400301430D48C01A1F2808DD0C488A
:10307000C31AD9400B005842002AF0D11800EEE7DD
:10308000084CC540A446634499400B002B43F2E72B
:10309000FE0300001D040000FFFFFF7F330400005B
:1030A00013040000EDFBFFFF70B5002816D0C31716
:1030B000C5185D40C40F2800FDF744FA114A121AE2
:1030C0000A2816DC03002E0015339E400B23181A25
:1030D000C54052052D032D0B530D03E000240023A2
:1030E000002500261B052B43E4072343300019006D
:1030F00070BD0B38854052052D0300262D0B530D56
:10310000F0E7C0461E04000010B5041E10D0FDF705
:1031100019FA0F4B1B1A0A2811DC0B222100121A74
:10312000D14015300A035B058440120B5B0D01E0B2
:10313000002300221B0513432000190010BD2200AC
:103140000B3882405B0512030024120B5B0DF1E784
:103150001E04000070B543004602C40FFE201B0E83
:10316000591C750A08420CD0E022920094466D0763
:10317000360B63441B053343E4072343280019003F
:1031800070BD002B14D1002D1BD02800FDF7DAF9FB
:103190000A281CDC0B232E001B1ADE40030015330B
:1031A0009D400E4A3603121A5205360B530DE1E7C5
:1031B000002D09D08022360B1203094B6D071643F0
:1031C000D8E700230026D5E70026054BD2E7030009
:1031D0000B3B9D402E000025E3E7C046890300001D
:1031E000FF07000002004B00F0B55B0D0C033D4EE5
:1031F000640A400F5F1CC90F0443D50037420AD050
:1032000039481E18FE2E16DDFF200024C00520437D
:10321000C9070843F0BD002B06D12C4326D0052258
:103220009201540AD8B2F1E72543EDD08020C003C3
:103230000443FF20EAE7002E1BDD9201531E9A4152
:10324000E4006D0F22432A43530748D00F23134055
:10325000042B00D004328023DB0413403FD0701CC9
:10326000FE2ED1D09201540AC0B2CFE70020002434
:10327000CCE73200173222DB8020000420431E24DA
:10328000A41B1F2C1DDD02225242961B0200F2409D
:103290001600202C04D0154A9446634498400543F8
:1032A0002A00531E9A41324300265307CED1802470
:1032B0001300E404012023402242D3D1B0E70023CD
:1032C000ADE70B4A94462A00E24014002A0063440A
:1032D0009A409840551EAA4102432243E4E7330036
:1032E0009EE7C046FE07000080FCFFFFA2FCFFFF38
:1032F00082FCFFFF10B5002903D1FDF723F9203030
:1033000002E00800FDF71EF910BDC04680B500AF11
:103310002E4B2F4A1A602D4B00225A602B4B002255
:103320009A602A4B0022DA60284B01221A61274B4F
:1033300004225A61254B00221A76244B00225A7629
:10334000224B00229A76214B0022DA761F4B002274
:10335000DA611E4B8022D2001A621C4B242201210A
:1033600099541A4B01229A62184B180004F004FF7A
:10337000031E01D000F08EFA164B05221A60154B81
:10338000802252015A60134B802252059A60114AE2
:103390000E4B1100180005F0D3F9031E01D000F008
:1033A00079FA0C4B06221A600A4A084B11001800E1
:1033B00005F0C6F9031E01D000F06CFA034B1800AB
:1033C00005F07CFCC046BD4680BDC04674010020AF
:1033D00000240140F801002090B58BB000AF786068
:1033E00014243B19180014231A00002111F025FCA5
:1033F0007B681B682D4A934254D12D4B9A692C4B04
:10340000802189000A439A61294B9A6980239B0095
:1034100013403B613B69264B5A69254B8021890249
:103420000A435A61224B5A6980239B021340FB6076
:10343000FB683B1960221A603B1903225A603B1952
:1034400000229A603A199023DB051100180006F05B
:10345000A5F9184B184A1A60164B00225A60154BF2
:1034600000229A60134B8022DA60124B80225200B5
:103470001A61104B8022D2005A610E4B20229A61B1
:103480000C4B80229201DA610A4B180005F0B6FF5E
:10349000031E01D000F0FEF97B68064A1A63054B53
:1034A0007A685A62C046BD460BB090BD0024014008
:1034B00000100240B40100200800024080B582B034
:1034C00000AF3B00180008231A00002111F0B5FBE3
:1034D0000F4B104A1A600E4B180005F06BFD031ECF
:1034E00001D000F0D7F93B000C221A603B0000220B
:1034F0005A603900064B0022180005F0F5FD031E46
:1035000001D000F0C7F9C046BD4602B080BDC0463C
:10351000040200200074004090B58BB000AF7860CA
:1035200014243B19180014231A00002111F085FB04
:103530007B681B682D4A934254D12D4BDA692C4B82
:10354000802189050A43DA61294BDA6980239B05CA
:1035500013403B613B69264B5A69254B8021890208
:103560000A435A61224B5A6980239B021340FB6035
:10357000FB683B1910221A603B1903225A603B1961
:1035800000229A603A199023DB051100180006F01A
:1035900005F9184B184A1A60164B10225A60154B41
:1035A00000229A60134B8022DA60124B8022520074
:1035B0001A61104B8022D2005A610E4B20229A6170
:1035C0000C4B80225201DA610A4B180005F016FFFD
:1035D000031E01D000F05EF97B68064A9A60054B35
:1035E0007A685A62C046BD460BB090BD0074004078
:1035F00000100240180200203000024080B582B066
:1036000000AF104B5A690F4B01210A435A610D4B11
:103610005B69012213407B607B6800220021092046
:1036200005F096FC092005F0A8FC002200210A20E4
:1036300005F08EFC0A2005F0A0FCC046BD4602B095
:1036400080BDC0460010024090B58BB000AF14247E
:103650003B19180014231A00002111F0EEFA4F4B09
:103660005A694E4B802109030A435A614B4B5A69F0
:1036700080231B0313403B613B69484B5A69474B0E
:103680008021C9030A435A61444B5A698023DB03F2
:103690001340FB60FB68414B5A69404B8021890213
:1036A0000A435A613D4B5A6980239B021340BB6019
:1036B000BB683A4B5A69394B8021C9020A435A61A7
:1036C000364B5A698023DB0213407B607B68344BA6
:1036D00000221021180006F0F6F980231902902329
:1036E000DB050022180006F0EEF93B192D4A1A609E
:1036F0003B1900225A603B1902229A603B192A4A60
:103700001900100006F04AF83B1903221A603B1911
:1037100000225A603B1902229A603B19234A190081
:10372000100006F03BF83B1910221A603B190122E9
:103730005A603B1900229A603B190322DA603B1958
:10374000174A1900100006F029F821007B18802282
:1037500012021A600C003B1901225A603B19002228
:103760009A603B190322DA603A199023DB051100B5
:10377000180006F013F83B1940221A603B19012289
:103780005A603B1901229A603B19054A1900100042
:1037900006F004F8C046BD460BB090BD00100240D4
:1037A00000040048043000000008004800140048ED
:1037B00080B500AF04F058FC00F01BF8FFF744FFA1
:1037C000FFF71CFF00F06CF800F0A2FBFFF79EFD76
:1037D00000F064F9FFF772FE00F03CFA00F08EFA98
:1037E00000F0B4F900F0CAFA0DF002FD0DF00AFD88
:1037F000FCE790B593B000AF14243B1918003423B4
:103800001A00002111F019FA3B1D180010231A00AC
:10381000002111F012FA21007B1812221A607B1885
:103820000122DA607B1801225A617B1810221A618A
:103830007B1810229A617B1802225A627B18802220
:1038400012029A627B18E0225203DA627B1800228D
:103850001A637B18180006F053F9031E01D000F01C
:1038600019F83B1D07221A603B1D02225A603B1DBE
:1038700000229A603B1D0022DA603B1D01211800E6
:1038800006F0C4FC031E01D000F004F8C046BD469B
:1038900013B090BD80B500AF72B6C046FEE7000021
:1038A00080B500AF1B4B1C4A1A601A4B8222520093
:1038B0005A60184B00229A60164BE022D200DA6060
:1038C000144B02221A61134B01225A61114B8022C0
:1038D00092009A610F4B0022DA610E4B00221A62AD
:1038E0000C4B00225A620B4B00229A62094B0722B2
:1038F000DA62084B00221A63064B00225A63054B1A
:10390000180006F0DDFD031E01D0FFF7C3FFC0461F
:10391000BD4680BD5C0200200030014090B58BB0F8
:1039200000AF786014243B19180014231A000021FA
:1039300011F083F97B681B681C4A934231D11C4B00
:103940009A691B4B802149010A439A61184B9A6975
:1039500080235B0113403B613B69154B5A69144B53
:103960008021C9020A435A61114B5A698023DB0244
:103970001340FB60FB6821007B1828221A607B182B
:1039800002225A607B1800229A607B180322DA60B8
:103990007B1800221A617B18064A1900100005F0F6
:1039A000FDFEC046BD460BB090BDC0460030014094
:1039B000001002400004004880B582B000AF0F4BF9
:1039C0009A690E4B01210A439A610C4B9B690122B3
:1039D00013407B607B68094BDA69084B80214905FD
:1039E0000A43DA61054BDA6980235B0513403B60CB
:1039F0003B68C046BD4602B080BDC04600100240D4
:103A000080B500AFFEE780B500AFFEE780B500AF40
:103A1000C046BD4680BD80B500AFC046BD4680BD36
:103A200080B500AF04F068FBC046BD4680BD000015
:103A300080B500AF034B180005F0C6FDC046BD467B
:103A400080BDC046B401002080B500AF034B180014
:103A500005F0BAFDC046BD4680BDC0461802002034
:103A600080B500AF034B180007F032F8C046BD46E2
:103A700080BDC046C002002080B500AF034B1800D7
:103A800007F026F8C046BD4680BDC046980300201A
:103A900080B500AFC046BD4680BD000080B586B091
:103AA00000AF0823FB18180010231A00002111F0A2
:103AB000C4F83B00180008231A00002111F0BDF8DB
:103AC0001F4B204A1A601E4B2F225A601C4B0022AB
:103AD0009A601B4B1C4ADA60194B00221A61184B82
:103AE00000225A61164B00229A61154B180006F00D
:103AF0009FFD031E01D0FFF7CDFE08217B18802219
:103B000052011A607A180E4B1100180007F0B2F932
:103B1000031E01D0FFF7BEFE3B0020221A603B00CF
:103B200000225A603A00064B1100180007F0C6FD4B
:103B3000031E01D0FFF7AEFEC046BD4606B080BDF5
:103B4000C0020020002C0140E703000080B58EB0C9
:103B500000AF2823FB18180010231A00002111F0D1
:103B60006CF82023FB18180008231A00002111F01C
:103B700064F83B1D18001C231A00002111F05DF8A9
:103B8000324B8022D2051A60304B47225A602F4BAD
:103B900000229A602D4B2E4ADA602C4B00221A61CB
:103BA0002A4B00229A61294B180006F041FD031EA2
:103BB00001D0FFF76FFE28217B18802252011A6086
:103BC0007A18224B1100180007F054F9031E01D097
:103BD000FFF760FE1D4B180006F06AFE031E01D0C1
:103BE000FFF758FE20217B1800221A607B18002264
:103BF0005A607A18154B1100180007F05FFD031E7C
:103C000001D0FFF747FE3B1D60221A603B1D0022DA
:103C10005A603B1D00229A603B1D00221A61391D2B
:103C20000A4B0822180007F069F8031E01D0FFF7BD
:103C300031FE064B0821180006F092FE034B1800D7
:103C400000F086FAC046BD460EB080BD08030020D5
:103C5000E703000080B586B000AF0823FB1818000A
:103C600010231A00002110F0E8FF3B001800082381
:103C70001A00002110F0E1FF1E4B1F4A1A601D4B75
:103C800000225A601B4B00229A601A4B4722DA60CE
:103C9000184B00221A61174B80229A61154B1800AD
:103CA00006F0C6FC031E01D0FFF7F4FD08217B18C7
:103CB000802252011A607A180E4B1100180007F08A
:103CC000D9F8031E01D0FFF7E5FD3B0020221A6062
:103CD0003B0000225A603A00064B1100180007F022
:103CE000EDFC031E01D0FFF7D5FDC046BD4606B072
:103CF00080BDC046500300200004004080B582B063
:103D000000AF3B00180008231A00002110F095FFB7
:103D1000174B184A1A60164B47225A60144B002260
:103D20009A60134B144ADA60114B00229A61104BCF
:103D3000180006F07DFC031E01D0FFF7ABFD3B0031
:103D400000221A603B0000225A603A00084B110022
:103D5000180007F0B3FC031E01D0FFF79BFD044BD6
:103D6000180006F025FDC046BD4602B080BDC04625
:103D70009803002000140040E703000080B596B0CF
:103D800000AF4823FB18180010231A00002110F080
:103D900054FF4023FB18180008231A00002110F0DC
:103DA0004CFF2423FB1818001C231A00002110F0DC
:103DB00044FF3B1D180020231A00002110F03DFF96
:103DC000504B514A1A604F4B00225A604D4B002213
:103DD0009A604C4B4D4ADA604A4B00221A61494BBB
:103DE00000225A61474B00229A61464B180006F0A8
:103DF0001FFC031E01D0FFF74DFD48217B188022D8
:103E000052011A607A183F4B1100180007F032F87F
:103E1000031E01D0FFF73EFD3A4B180006F048FDA7
:103E2000031E01D0FFF736FD40217B1800221A60E7
:103E30007B1800225A607A18324B1100180007F0E4
:103E40003DFC031E01D0FFF725FD24217B186022D5
:103E50001A607B1800225A607B1800229A607B1837
:103E60000022DA607B1800221A617B1800225A6156
:103E70007B1800229A617918224B0022180006F064
:103E80003DFF031E01D0FFF705FD2423F9181D4B4C
:103E90000422180006F032FF031E01D0FFF7FAFCDF
:103EA0003B1D00221A603B1D00225A603B1D002270
:103EB0009A603B1D0022DA603B1D00221A613B1D07
:103EC000802292015A613B1D0022DA613A1D0D4B9E
:103ED0001100180007F050FC031E01D0FFF7DAFCB8
:103EE000084B0021180006F03BFD064B042118008A
:103EF00006F036FD034B180000F02AF9C046BD4617
:103F000016B080BDE003002000400140E703000040
:103F100080B590B000AF2423FB1818001C231A00B2
:103F2000002110F08AFE3B1D180020231A000021FA
:103F300010F083FE384B394A1A60374B00225A6022
:103F4000354B00229A60344B354ADA60324B0022FE
:103F50001A61314B00225A612F4B00229A612E4B7D
:103F6000180006F065FB031E01D0FFF793FC2A4BF7
:103F7000180006F09DFC031E01D0FFF78BFC2421E6
:103F80007B1860221A607B18254A5A607B18002231
:103F90009A607B180022DA607B1800221A617B1875
:103FA00000225A617B1800229A6179181A4B00226C
:103FB000180006F0A3FE031E01D0FFF76BFC3B1DAB
:103FC00000221A603B1D00225A603B1D00229A60AD
:103FD0003B1D0022DA603B1D00221A613B1D80223E
:103FE00092015A613B1D0022DA613A1D0A4B110011
:103FF000180007F0C1FB031E01D0FFF74BFC064B76
:104000000021180006F0ACFC034B180000F0A0F8EB
:10401000C046BD4610B080BD2804002000440140C9
:104020000F27000080B588B000AF78607B681B6800
:10403000414A934216D1414B9A69404B8021090174
:104040000A439A613D4B9A6980231B011340FB612F
:10405000FB69002200210D2004F07AFF0D2004F0FE
:104060008CFF65E07B681A688023DB059A420CD1DF
:10407000324BDA69314B01210A43DA612F4BDB699C
:1040800001221340BB61BB6952E07B681B682C4A6C
:1040900093420CD1294BDA69284B02210A43DA6199
:1040A000264BDB69022213407B617B6940E07B6821
:1040B0001B68244A934214D1204BDA691F4B2021FC
:1040C0000A43DA611D4BDB69202213403B613B69E7
:1040D00000220121122004F03BFF122004F04DFFCA
:1040E00026E07B681B68184A93420ED1134B9A69ED
:1040F000124B802149020A439A61104B9A6980232E
:104100005B021340FB60FB6812E07B681B680F4A90
:1041100093420DD1094B9A69084B802189020A43C9
:104120009A61064B9A6980239B021340BB60BB686F
:10413000C046BD4608B080BD002C014000100240C2
:1041400000040040001400400040014000440140D1
:1041500090B58BB000AF786014243B19180014237D
:104160001A00002110F069FD7B681A688023DB05C6
:104170009A4225D1334B5A69324B8021C9020A43F6
:104180005A61304B5A698023DB0213403B613B6923
:104190003B198022D2001A6021007B1802225A604B
:1041A0007B1800229A607B180022DA607B180222BA
:1041B0001A617B18244A1900100005F0EFFA3DE05F
:1041C0007B681B68214A934225D11E4B5A691D4BBF
:1041D0008021C9020A435A611A4B5A698023DB02C3
:1041E0001340FB60FB6814217B18C02212021A6086
:1041F0007B1802225A607B1800229A607B180022EA
:10420000DA607B1801221A617B180F4A190010002E
:1042100005F0C4FA12E07B681B680D4A93420DD189
:10422000084B5A69074B8021C9020A435A61054B62
:104230005A698023DB021340BB60BB68C046BD46A1
:104240000BB090BD00100240000400480040014047
:10425000004401400D4885460D480E490E4A002392
:1042600002E0D458C4500433C4188C42F9D30B4A2A
:104270000B4C002301E013600432A242FBD3FFF792
:1042800007FC10F0ADFCFFF793FAFEE700400020BA
:104290000000002054010020F8900108580100207F
:1042A000FC370020FEE790B589B000AFF860B96038
:1042B0007A6034E0FB681A1DFA601B68FB61FB68DA
:1042C0001A1DFA601B68BB61F969F869FCF7E0FD2B
:1042D000031C1C1CB969B869FCF7DAFD031C191C26
:1042E000201CFCF76FFA031C191CBB681A1DBA606E
:1042F00079613B6100217869FCF71AF9031E07D048
:104300007B69181C0FF02AFC021C3B691A6003E051
:104310003B6900221A60C0467B68013B7B607B687A
:10432000002BC7D1C046C046BD4609B090BD80B580
:1043300088B000AFF860B9607A603B6000237B61B1
:10434000FB681A1DFA601B68FB61BB68013BBB611F
:1043500013E0FB681A1DFA601B683B613969F86954
:10436000FCF7C8F8031E05D03B69FB61BA68BB695E
:10437000D31A7B61BB69013BBB61BB69002BE8D1F0
:104380007B68FA691A603B687A691A60C046BD4664
:1043900008B080BDF0B5A1B000AF786039607B682F
:1043A0001B88BB66BB6E9B003A68D3187B677B6833
:1043B0005B683B673B687B667B6F3B66BB6E5B08FD
:1043C000BB66BB6E9B003A68D318FB67BB6E9B0055
:1043D0007A6FD318BB67BB6E9B08FB66ECE13B684A
:1043E0001A6838203B181A603B685A683B185A60B4
:1043F0003B689A683B189A603B68DA683B18DA6059
:104400007B6F1A6828217B181A607B6F5A687B18AB
:104410005A607B6F9A687B189A607B6FDA687B18AA
:10442000DA60FB6F1A6818243B191A60FB6F5A6830
:104430003B195A60FB6F9A683B199A60FB6FDA6808
:104440003B19DA60BB6F1A680826BB191A60BB6F8C
:104450005A68BB195A60BB6F9A68BB199A60BB6FE8
:10446000DA68BB19DA603B181A680D007B19196805
:104470003C68231D3B60101CFCF7A4F9031C23605F
:1044800038203B185A687B1959683C68231D3B60EB
:10449000101CFCF797F9031C236038203B189A681E
:1044A0007B1999683C68231D3B60101CFCF78AF956
:1044B000031C236038203B18DA687B19D9683C68F4
:1044C000231D3B60101CFCF77DF9031C236038247E
:1044D0003B191A687B191B68191C101CFCF7FEFDA0
:1044E000031C1A1C7B191A603B195A687B195B68FC
:1044F000191C101CFCF7F2FD031C1A1C7B195A60D6
:104500003B199A687B199B68191C101CFCF7E6FD87
:10451000031C1A1C7B199A603B19DA687B19DB684B
:10452000191C101CFCF7DAFD031C1A1C7B19DA603D
:1045300018243B191A68BB191968FC6F231DFB6707
:10454000101CFCF73FF9031C236018243B195A6820
:10455000BB195968FC6F231DFB67101CFCF732F96F
:10456000031C236018243B199A68BB199968FC6FD7
:10457000231DFB67101CFCF725F9031C236018247E
:104580003B19DA68BB19D968FC6F231DFB67101C47
:10459000FCF718F9031C2360BB191A6818243B198F
:1045A0001B68191C101CFCF799FD031C1A1CBB1975
:1045B0001A60BB195A683B195B68191C101CFCF780
:1045C0008DFD031C1A1CBB195A60BB199A683B1954
:1045D0009B68191C101CFCF781FD031C1A1CBB19DD
:1045E0009A60BB19DA683B19DB68191C101CFCF7D0
:1045F00075FD031C1A1CBB19DA603B6F1A1D3A6764
:104600001B68FB653B6F1A1D3A671B68BB657B190E
:104610001B68191CF86DFCF73BFC031C7B657B19C0
:104620005B68191CB86DFCF733FC031C3B657B19F8
:104630005B68191CF86DFCF72BFC031CFB647B19F1
:104640001B68191CB86DFCF723FC031CBB647C6F52
:10465000231D7B67396D786DFCF7B4F8031C23606C
:104660007C6F231D7B67B96CF86CFCF737FD031C6E
:104670002360BB191B68191CB86DFCF709FC031CEF
:104680007B65BB195B68191CF86DFCF701FC031C0A
:104690003B65BB195B68191CB86DFCF7F9FB031C83
:1046A000FB64BB191B68191CF86DFCF7F1FB031CBC
:1046B000BB64BC6F231DBB67396D786DFCF70EFDC5
:1046C000031C2360BC6F231DBB67B96CF86CFCF73F
:1046D00079F8031C23603B6F1A1D3A671B68FB6562
:1046E0003B6F1A1D3A671B68BB657B199B68191CD9
:1046F000F86DFCF7CDFB031C7B657B19DB68191C8F
:10470000B86DFCF7C5FB031C3B657B19DB68191C06
:10471000F86DFCF7BDFB031CFB647B199B68191C3F
:10472000B86DFCF7B5FB031CBB647C6F231D7B6776
:10473000396D786DFCF746F8031C23607C6F231DF0
:104740007B67B96CF86CFCF7C9FC031C2360BB19D0
:104750009B68191CB86DFCF79BFB031C7B65BB19A0
:10476000DB68191CF86DFCF793FB031C3B65BB1958
:10477000DB68191CB86DFCF78BFB031CFB64BB19D1
:104780009B68191CF86DFCF783FB031CBB64BC6FB2
:10479000231DBB67396D786DFCF7A0FC031C2360FB
:1047A000BC6F231DBB67B96CF86CFCF70BF8031CDE
:1047B0002360FB6E013BFB66FB6E002B00D00EE618
:1047C000BB6E99B27B685A68786E022300F0C4FF12
:1047D000BB6E99B27B685A68386E022300F0BCFF4A
:1047E000C046BD4621B0F0BDF0B5ADB000AF7860B9
:1047F00039607B681B885B089BB280203A18136085
:104800003B181B689B003A68D31890243A19136030
:104810003B181B689B003A191268D3188C217A1830
:1048200013603B181B689B007A181268D318882500
:104830007A1913603B68FB673B191B68BB677B18E1
:104840001B687B677B191B683B673B191B68043B34
:10485000AC22BA1813607B181B68043BA822BA1854
:1048600013607B191B68043BA422BE1833603B18FD
:104870001B689B00BA181268D318A022BA181360DC
:104880007B685B689422BE183360BB181B6898264F
:10489000BA191360BB191B689C22BE1833603B1801
:1048A0001B685B083E1833600223FB660423BB666B
:1048B00006237B663B681A680E00BB191B681B68E1
:1048C000191C101CFBF77EFF031C3B663B681A6833
:1048D000BB191B681B68191C101CFCF7FFFB031C91
:1048E000FB653B6804331A68BB191B6804331B68FB
:1048F000191C101CFBF766FF031CBB653B680433E7
:104900001A68BB191B6804331B68191C101CFCF7C0
:10491000E5FB031C7B653B191B6804331B68F96DC1
:10492000181CFBF74FFF031C1A1C7B191B68043370
:104930001B68191C101CFCF7D1FB031C1A1C2C2330
:104940001E00FB181A603B191B681B68191C786D48
:10495000FCF7C4FB031C1A1C7B191B681B68191C81
:10496000101CFBF72FFF031C1A1C3300FB185A60A6
:104970003B191B681B68191C386EFCF7AFFB031C46
:104980001A1C7B191B681B68191C101CFCF7A6FB62
:10499000031C1A1C1C231E00FB181A603B191B6801
:1049A00004331B68191CB86DFCF798FB031C1A1C18
:1049B0007B191B6804331B68191C101CFCF78EFB49
:1049C000031C1A1C3300FB185A603B191B68043384
:1049D0001B68191CF86DFCF781FB031C1A1C2E00C8
:1049E000BB191B6804331B68191C101CFBF7EAFE7B
:1049F000031C1A1C0C257B191A603B191B681B68C9
:104A0000796D181CFBF7DEFE031C1A1CBB191B6812
:104A10001B68191C101CFCF761FB031C1A1C7B197A
:104A20005A6025003B191B681B68396E181CFBF780
:104A3000C9FE031C181CBB191B681A683C68231D9F
:104A40003B60111CFBF7BEFE031C23607B191B6837
:104A500004331B68B96D181CFBF7B4FE031C181C4B
:104A6000BB191B6804331A683C68231D3B60111C8A
:104A7000FBF7A8FE031C23607B191B681A1D7C1919
:104A800022602C243A1912681A607B191B681A1DBF
:104A90007819026025007A1952681A608C217B18F7
:104AA0001B681A1D7C1822601C257A1912681A606E
:104AB0007B181B681A1D79180A607A1952681A60E7
:104AC000BB191B681A1DB9190A600C257A191268DE
:104AD0001A60BB191B681A1DB9190A607A19526845
:104AE0001A60FB6E9B009C257A191268D3187D19F9
:104AF0002B60BB6E9B0098243D192A68D3183C1983
:104B000023607B6E9B0094217A181268D3187A1860
:104B1000136080203B181B68023B5B088422BA1894
:104B2000136077E33B681A688C243B191B681B6889
:104B3000191C101CFBF746FE031C3B663B681A68F9
:104B40003B191B681B68191C101CFCF7C7FA031CD7
:104B5000FB653B6804331A683B191B6804331B6808
:104B6000191C101CFBF72EFE031CBB653B680433AD
:104B70001A683B191B6804331B68191C101CFCF7CE
:104B8000ADFA031C7B6590243B191B6804331B683A
:104B9000F96D181CFBF716FE031C1A1C88257B19DF
:104BA0001B6804331B68191C101CFCF797FA031CC4
:104BB0001A1C2C26BB191A603B191B681B68191C90
:104BC000786DFCF78BFA031C1A1C7B191B681B6899
:104BD000191C101CFBF7F6FD031C1A1CBB195A60AC
:104BE0003B191B681B68191C386EFCF777FA031C0D
:104BF0001A1C7B191B681B68191C101CFCF76EFA29
:104C0000031C1A1C1C231E00FB181A603B191B688E
:104C100004331B68191CB86DFCF760FA031C1A1CDE
:104C20007B191B6804331B68191C101CFCF756FA0F
:104C3000031C1A1C3300FB185A603A19136804331A
:104C40001B68191CF86DFCF749FA031C1A1C2E008E
:104C5000B819036804331B68191C101CFBF7B2FD5C
:104C6000031C1A1C0C257B191A603A1913681B685F
:104C7000796D181CFBF7A6FD031C1A1CB8190368F4
:104C80001B68191C101CFCF729FA031C1A1C7B1941
:104C90005A6025003A1913681B68396E181CFBF717
:104CA00091FD031C181CBA1913681A683C68231D6F
:104CB0003B60111CFBF786FD031C23607A19136807
:104CC00004331B68B96D181CFBF77CFD031C181C12
:104CD000BA19136804331A683C68231D3B60111C21
:104CE000FBF770FD031C2360AC221400BA18136894
:104CF000043B1A68A42039180B68043B1B68191C74
:104D0000101CFBF75FFD031CBB653A191368043BDD
:104D10001A68A42039180B68043B1B68191C101C66
:104D2000FCF7DCF9031C7B653A1913681A68A420A8
:104D300039180B681B68191C101CFBF743FD031C7A
:104D40003B662200B9180B681A68A42039180B6852
:104D50001B68191C101CFCF7C1F9031CFB65A82279
:104D6000B9180B681A68A0217B181B681B68191CEE
:104D7000101CFCF7B3F9031C796D181CFBF722FD1E
:104D8000031C1A1C2C243B199A60AC22BB181B680C
:104D90001A68A4203B181B681B68191C101CFCF720
:104DA0009DF9031C1A1CA8203B181B68043B1B68B8
:104DB000191C101CFCF792F9031C1A1CA0217B186B
:104DC0001B68043B1B68191C101CFBF7FBFC031C35
:104DD0001A1C3B19DA60A8203B181B68043B1B68AF
:104DE000191CB86DFCF77AF9031C1A1CA0217B185A
:104DF0001B68043B1B68191C101CFCF76FF9031C93
:104E00001A1C1C231C00FB189A60A8203B181B6866
:104E10001B68191C386EFCF761F9031C1A1CA023CF
:104E2000FB181B681B68191C101CFCF757F9031CA6
:104E30001A1C2300FB18DA60A8203A1813681A68B5
:104E4000A023FB181B681B68191C101CFCF746F9F3
:104E5000031C796D181CFCF741F9031C1A1C0C216A
:104E60000C007B189A60A0217B181B68043B1A6811
:104E7000A8203B181B68043B1B68191C101CFCF77E
:104E80002DF9031CF96D181CFCF728F9031C1A1CDA
:104E900021007B18DA60A8203B181B681B68396E5C
:104EA000181CFBF78FFC031C181CA022BB181B68E6
:104EB0001A68AC217B181C68231F79180B60111C21
:104EC000FBF780FC031C2360A8203B181B68043BF5
:104ED0001B68B96D181CFBF775FC031C181CA0237C
:104EE000FB181B68043B1A68AC217B181C68231F45
:104EF00079180B60111CFBF765FC031C23609C21D7
:104F00007B181B681A1D781802601B683B657B18AC
:104F10001B681A1D79180A601B68FB642C243B1956
:104F20001B68191C386DFBF7B3FF031CBB643B19EE
:104F30005B68191CF86CFBF7ABFF031C7B643B1927
:104F40005B68191C386DFBF7A3FF031C3B643B191E
:104F50001B68191CF86CFBF79BFF031CFB6379199A
:104F60000C68231D79190B60796CB86CFBF72AFC6F
:104F7000031C236079190C68231D79190B60F96BE8
:104F8000386CFCF7ABF8031C23602C243B19DB685E
:104F9000191CF86CFBF77CFF031CBB643B199B6876
:104FA000191C386DFBF774FF031C7B643B199B686D
:104FB000191CF86CFBF76CFF031C3B643B19DB68A6
:104FC000191C386DFBF764FF031CFB63A822B8189B
:104FD0000468231F1500B8180360796CB86CFCF7DF
:104FE0007DF8031C23602A00B8180468231FB81832
:104FF0000360F96B386CFBF7E5FB031C236098201A
:105000003A1813681B683B653A1813685B68FB64C1
:10501000BB6E9B003A181268D318381803601C2521
:105020007B191B68191C386DFBF732FF031CBB642E
:105030007B195B68191CF86CFBF72AFF031C7B6467
:105040007B195B68191C386DFBF722FF031C3B645E
:105050007B191B68191CF86CFBF71AFF031CFB6318
:105060008C2421003C192468231D78180360796C76
:10507000B86CFBF7A7FB031C23608C217C18246809
:10508000231D79180B60F96B386CFCF727F8031CAB
:1050900023607B19DB68802212065340191C386D8F
:1050A000FBF7F6FE031CBB647B199B68191CF86CAC
:1050B000FBF7EEFE031C7B647B199B68191C386DA3
:1050C000FBF7E6FE031C3B647B19DB68191CF86CDC
:1050D000FBF7DEFE031CFB63A422B8180468231F41
:1050E0001500BA181360796CB86CFBF7F7FF031C56
:1050F00023602A00B8180468231FBA181360396C9B
:10510000F86BFBF7EBFF031C23609422B8180368CD
:105110001B683B65B81803685B68FB647B6E9B008B
:105120001000BA181268D3183A1813600C257B19AE
:105130001B68191C386DFBF7ABFE031CBB647B19A5
:105140005B68191CF86CFBF7A3FE031C7B647B19DE
:105150005B68191C386DFBF79BFE031C3B647B19D5
:105160001B68191CF86CFBF793FE031CFB63BA1950
:105170001468231DBA191360796CB86CFBF722FB15
:10518000031C2360BA191468231DBA191360F96B44
:10519000386CFBF7A3FF031C23607B19DB68191C29
:1051A000F86CFBF775FE031CBB647B199B68191C2C
:1051B000386DFBF76DFE031C7B647B199B68191C23
:1051C000F86CFBF765FE031C3B647B19DB68191C5C
:1051D000386DFBF75DFE031CFB63A0257B191C6883
:1051E000231F7A191360796CB86CFBF777FF031CE7
:1051F00023607B191C68231F7A191360F96B386CC4
:10520000FBF7E0FA031C23608422BB181B68013BF8
:10521000BA1813608423FB181B68002B00D081E4AC
:105220003B681A688C243B191B681B68191C101CEE
:10523000FBF7C8FA031C3B663B681A683B191B68FE
:105240001B68191C101CFBF749FF031CFB653B681E
:1052500004331A683B191B6804331B68191C101CA3
:10526000FBF7B0FA031CBB653B6804331A683B19B3
:105270001B6804331B68191C101CFBF72FFF031C51
:105280007B6590243B191B6804331B68F96D181C5F
:10529000FBF798FA031C1A1C88257B191B6804333A
:1052A0001B68191C101CFBF719FF031C1A1C2C2669
:1052B000BB191A603B191B681B68191C786DFBF73A
:1052C0000DFF031C1A1C7B191B681B68191C101C82
:1052D000FBF778FA031C1A1CBB195A603A191368B9
:1052E0001B68191C386EFBF7F9FE031C1A1C791990
:1052F0000B681B68191C101CFBF7F0FE031C1A1C22
:105300001C210E007B181A603A19136804331B68BD
:10531000191CB86DFBF7E2FE031C1A1C79190B6807
:1053200004331B68191C101CFBF7D8FE031C1A1C45
:1053300031007B185A603A19136804331B68191C32
:10534000F86DFBF7CBFE031C1A1C2E00B81903687E
:1053500004331B68191C101CFBF734FA031C1A1CBD
:105360000C2005003B181A603A1913681B68796D08
:10537000181CFBF727FA031C1A1CB81903681B68D2
:10538000191C101CFBF7AAFE031C1A1C28003B1852
:105390005A6025003A1913681B68396E181CFBF710
:1053A00011FA031C181CBA1913681A683C68231DEB
:1053B0003B60111CFBF706FA031C23607A19136883
:1053C00004331B68B96D181CFBF7FCF9031C181C8F
:1053D000BA19136804331A683C68231D3B60111C1A
:1053E000FBF7F0F9031C23609C22BB181B681B68A9
:1053F0003B65BA1813685B68FB642C231C00FB1820
:105400001B68191C386DFBF743FD031CBB643B197B
:105410005B68191CF86CFBF73BFD031C7B643B19B4
:105420005B68191C386DFBF733FD031C3B642300DC
:10543000FB181B68191CF86CFBF72AFD031CFB63A7
:105440007B191C68231D7A191360796CB86CFBF703
:10545000B9F9031C23607B191C68231D7A1913609A
:10546000F96B386CFBF73AFE031C23609822BB18DB
:105470001B681B683B65BB181B685B68FB641C21D1
:105480000C007B181B68191C386DFBF701FD031C11
:10549000BB643B195B68191CF86CFBF7F9FC031C37
:1054A0007B643B195B68191C386DFBF7F1FC031C2E
:1054B0003B642300FB181B68191CF86CFBF7E8FC25
:1054C000031CFB638C257B191C68231D7A19136050
:1054D000796CB86CFBF776F9031C23607B191C68A8
:1054E000231D7A191360F96B386CFBF7F7FD031C69
:1054F00023609422BB181B681B683B65BB181B68A4
:105500005B68FB640C243B191B68191C386DFBF7A6
:10551000BFFC031CBB643B195B68191CF86CFBF7F0
:10552000B7FC031C7B643B195B68191C386DFBF7E7
:10553000AFFC031C3B643B191B68191CF86CFBF7A0
:10554000A7FC031CFB63BB191C68231DBA1913605D
:10555000796CB86CFBF736F9031C2360BB191C6827
:10556000231DBA191360F96B386CFBF7B7FD031CE8
:10557000236080243B191B6899B27B685A68F86FD6
:10558000042300F0E9F83B191B6899B27B685A685C
:10559000B86F042300F0E0F83B191B6899B27B68F0
:1055A0005A68786F042300F0D7F83B191B6899B24A
:1055B0007B685A68386F042300F0CEF8C046BD46B9
:1055C0002DB0F0BD90B589B000AFF860B96019009A
:1055D000FB1D1A70BB1D0A1C1A70FB681B887B61BF
:1055E000FB1D1B78012B16D1BB680433BB61002364
:1055F000FB610CE0BB691B68802212065A40BB6944
:105600001A60BB690833BB61FB690133FB61FA694E
:105610007B699A42EED37A6980235B019A424DD02E
:105620007A6980235B019A4251D87A6980231B01F1
:105630009A423CD07A6980231B019A4247D87A6902
:105640008023DB009A422BD07A698023DB009A42C8
:105650003DD87A6980239B009A422FD07A698023B3
:105660009B009A4233D87A6980235B009A421ED00D
:105670007A6980235B009A4229D87B69802B0FD0FE
:105680007B69802B23D87B69402B17D07B69402B0B
:105690001DD87B69102B03D07B69202B07D016E027
:1056A000BA68FB6811001800FEF774FE0FE0BA68D4
:1056B000FB6811001800FFF797F808E07B6999B2C2
:1056C000FB685A68B868012300F046F8C046BB1D65
:1056D0001B78002B07D0FB689989FB689A68BB6828
:1056E0001800FAF711FDFB1D1B78012B30D17869EA
:1056F000FBF726FF031C191CFE208005FBF700FAB0
:10570000031C3B61BB68BB610023FB611CE0BC69FF
:10571000231DBB6123683969181CFBF7B9FB031C07
:105720002360BB691B688022120653403969181C2C
:10573000FBF7AEFB031C1A1CBB691A60BB69043380
:10574000BB61FB690133FB61FA697B699A42DED375
:10575000C046BD4609B090BDF0B5BDB000AFF86021
:1057600008007A6019000A243B19021C1A800823D9
:10577000FB180A1C1A800C4BDC22BA1813603B1968
:105780001B88E422BA181360E422BB181B68D821D6
:1057900079180B60BB181B68DB08BA18136000236C
:1057A000E822BA18136001E0F304353FE8217B18C2
:1057B0001A68E4203B181B68D318D426BA19136062
:1057C000BB191A683B181B68D318D0257A191360C7
:1057D0007B191A683B181B68D318CC243A1913603C
:1057E0003B191A683B181B68D318C822BC182360E1
:1057F0001400BB181A683B181B68D318C422BD18C4
:105800002B60BB181A683B181B68D318C0257A197F
:1058100013602B00FA18126838180368D318BC22DA
:10582000B81803600D0079180B68DB00FA68D3180C
:105830001868210079180B68DB00FA68D3181B6818
:10584000191CFAF7BFFF031CB82439190B6078192B
:105850000368DB00FA68D3181868C82179180B6848
:10586000DB00FA68D3181B68191CFBF737FC031C14
:10587000B421781803603500BE193368DB00FA687C
:10588000D3181868C426BE193368DB00FA68D31829
:105890001B68191CFAF796FF031CB026B8190360A1
:1058A0002B00F8180368DB00FA68D3181868C422C4
:1058B000B9180B68DB00FA68D3181B68191CFBF7D2
:1058C0000DFC031CAC2039180B60D0221500BA184F
:1058D0001368DB00FA68D3181868C023FA18136835
:1058E000DB00FA68D3181B68191CFAF76BFF031C5E
:1058F000A822B9180B602A00B9180B68DB00FA68F7
:10590000D3181868C023F9180B68DB00FA68D3189D
:105910001B68191CFBF7E2FB031CA42179180B6020
:10592000CC231D00F9180B68DB00FA68D31818683F
:10593000BC23FB181B68DB00FA68D3181B68191C12
:10594000FAF740FF031CA02039180B602B00F91850
:105950000B68DB00FA68D3181868BC217D182B6827
:10596000DB00FA68D3181B68191CFBF7B7FB031C94
:105970009C203D182B60A8200500381801683819B4
:105980000068FBF7ABFB031C98203A181360280053
:105990003D1829683D192868FAF714FF031C2500F3
:1059A0003C192360A0243B191968BB191868FBF740
:1059B00095FB031CA8243C192360A0243C192168F2
:1059C000BC192068FAF7FEFE031CBC192360E8210D
:1059D0007C182368DB00FA68D418B81901687819B4
:1059E0000068FAF7EFFE031C2360C8243C19236803
:1059F000DB00FA68D418B919096878190068FBF750
:105A00006DFB031C2360E8217C182368DB00043352
:105A1000FA68D3181868C8243C192368DB000433DB
:105A2000FA68D3181B68191CFAF7CCFE031C2C006B
:105A30007D192B60E8217D182B68DB000433FA68A0
:105A4000D3181868C823FD182B68DB000433FA68E4
:105A5000D3181B68191CFBF741FB031C94257D1907
:105A60002B60D42579190B68DB000433FA68D3184E
:105A70001868C422B9180B68DB000433FA68D3181D
:105A80001B68191CFAF79EFE031CB9190B607D19DF
:105A90002B68DB000433FA68D3181868C422BD18D9
:105AA0002B68DB000433FA68D3181B68191CFBF75A
:105AB00015FB031C90257A191360D0221500BA1823
:105AC0001368DB000433FA68D3181868C022BA18C8
:105AD0001368DB000433FA68D3181B68191CFAF743
